              HEADER00005022013Orange Money                                      CAISCOM2                                                                                                                                                                                                                                                                                                                                                                                                                                                                                                                                                                                                                                                                                                                                                                                                                                                                                                                                                                                                                                                                                                                                                                                                                                                                                                                           
01168863438        0000NMr. Usama  Us                          Flat 1                          44 Upperkirkgate                Aberdeen                                                        AB10 1BA N        0000         0000                                                                                                                                                                                                                                                                                                                                                                                                                                                                                                                                                                                                                                                                                                                                                                                                                                                                                                                            00000000                                                                                                   0205022013000000000010000030000001300 0 0000000      000000000 00000000 2113130000000M00000000000 000000 00000000  B                       
01377276425        0000LMr. qwe qwe qwe                        24-26 Upperkirkgate                                             Aberdeen                                                        AB10 1BA N        0000         0000                                                                                                                                                                                                                                                                                                                                                                                                                                                                                                                                                                                                                                                                                                                                                                                                                                                                                                                            00000000                                                                                                   0224012013000000000090000030000010182 0 0000000      000000000 00000000 3232110000000M00000000000 000000 00000000  B                       
01088504424        0000LMr. Qazfour  Q                         24-26 Upperkirkgate                                             Aberdeen                                                        AB10 1BA N        0000         0000                                                                                                                                                                                                                                                                                                                                                                                                                                                                                                                                                                                                                                                                                                                                                                                                                                                                                                                            00000000                                                                                                   0222122012000000000010000030000000723 0 0000000      000000000 00000000 0000000000000M00000000000 000000 00000000  B                       
01088504423        0000LMr. Qazfour  Q                         24-26 Upperkirkgate                                             Aberdeen                                                        AB10 1BA N        0000         0000                                                                                                                                                                                                                                                                                                                                                                                                                                                                                                                                                                                                                                                                                                                                                                                                                                                                                                                            00000000                                                                                                   0223122012000000000010000030000000725 0 0000000      000000000 00000000 0000000000000M00000000000 000000 00000000  B                       
01377276421        0000LMr. qwe qwe qwe                        24-26 Upperkirkgate                                             Aberdeen                                                        AB10 1BA N        0000         0000                                                                                                                                                                                                                                                                                                                                                                                                                                                                                                                                                                                                                                                                                                                                                                                                                                                                                                                            00000000                                                                                                   0224012013000000000089000030000000000 0 0000000      000000000 00000000 3232110000000M00000000000 000000 00000000  B                       
01377276420        0000LMr. qwe qwe qwe                        24-26 Upperkirkgate                                             Aberdeen                                                        AB10 1BA N        0000         0000                                                                                                                                                                                                                                                                                                                                                                                                                                                                                                                                                                                                                                                                                                                                                                                                                                                                                                                            00000000                                                                                                   0209122012240120130011000030000000000 0 0000000      000000000 00000000 3232110000000M00000000000 000000 00000000  B                       
01377276397        0000LMr. qwe qwe qwe                        24-26 Upperkirkgate                                             Aberdeen                                                        AB10 1BA N        0000         0000                                                                                                                                                                                                                                                                                                                                                                                                                                                                                                                                                                                                                                                                                                                                                                                                                                                                                                                            00000000                                                                                                   0205122012230120130010000030000000000 0 0000000      000000000 00000000 3232110000000M00000000000 000000 00000000  B                       
01377276394        0000LMr. qwe qwe qwe                        24-26 Upperkirkgate                                             Aberdeen                                                        AB10 1BA N        0000         0000                                                                                                                                                                                                                                                                                                                                                                                                                                                                                                                                                                                                                                                                                                                                                                                                                                                                                                                            00000000                                                                                                   0205122012180120130010000030000000000 0 0000000      000000000 00000000 3232110000000M00000000000 000000 00000000  B                       
01377276392        0000LMr. qwe qwe qwe                        24-26 Upperkirkgate                                             Aberdeen                                                        AB10 1BA N        0000         0000                                                                                                                                                                                                                                                                                                                                                                                                                                                                                                                                                                                                                                                                                                                                                                                                                                                                                                                            00000000                                                                                                   0205122012180120130010000030000000000 0 0000000      000000000 00000000 3232110000000M00000000000 000000 00000000  B                       
01377276391        0000LMr. qwe qwe qwe                        24-26 Upperkirkgate                                             Aberdeen                                                        AB10 1BA N        0000         0000                                                                                                                                                                                                                                                                                                                                                                                                                                                                                                                                                                                                                                                                                                                                                                                                                                                                                                                            00000000                                                                                                   0205122012180120130010000030000000000 0 0000000      000000000 00000000 3232110000000M00000000000 000000 00000000  B                       
01377276390        0000LMr. qwe qwe qwe                        24-26 Upperkirkgate                                             Aberdeen                                                        AB10 1BA N        0000         0000                                                                                                                                                                                                                                                                                                                                                                                                                                                                                                                                                                                                                                                                                                                                                                                                                                                                                                                            00000000                                                                                                   0205122012180120130010000030000000000 0 0000000      000000000 00000000 3232110000000M00000000000 000000 00000000  B                       
01960640389        0000LMr. Qaztwo  Q                          Flat 1                          12 Upperkirkgate                Aberdeen                                                        AB10 1BA N        0000         0000                                                                                                                                                                                                                                                                                                                                                                                                                                                                                                                                                                                                                                                                                                                                                                                                                                                                                                                            00000000                                                                                                   0218012013000000000007000060000000620 0 0000000      000000000 00000000 0000000000000M00000000000 000000 00000000  B                       
01377276388        0000LMr. qwe qwe qwe                        24-26 Upperkirkgate                                             Aberdeen                                                        AB10 1BA N        0000         0000                                                                                                                                                                                                                                                                                                                                                                                                                                                                                                                                                                                                                                                                                                                                                                                                                                                                                                                            00000000                                                                                                   0218012013000000000010000030000000000 0 0000000      000000000 00000000 3232110000000M00000000000 000000 00000000  B                       
01377276387        0000LMr. qwe qwe qwe                        24-26 Upperkirkgate                                             Aberdeen                                                        AB10 1BA N        0000         0000                                                                                                                                                                                                                                                                                                                                                                                                                                                                                                                                                                                                                                                                                                                                                                                                                                                                                                                            00000000                                                                                                   0218012013000000000010000030000000000 0 0000000      000000000 00000000 3232110000000M00000000000 000000 00000000  B                       
01960640386        0000LMr. Qaztwo  Q                          Flat 1                          12 Upperkirkgate                Aberdeen                                                        AB10 1BA N        0000         0000                                                                                                                                                                                                                                                                                                                                                                                                                                                                                                                                                                                                                                                                                                                                                                                                                                                                                                                            00000000                                                                                                   0218012013000000000010000030000001150 0 0000000      000000000 00000000 0000000000000M00000000000 000000 00000000  B                       
01960640385        0000LMr. Qaztwo  Q                          Flat 1                          12 Upperkirkgate                Aberdeen                                                        AB10 1BA N        0000         0000                                                                                                                                                                                                                                                                                                                                                                                                                                                                                                                                                                                                                                                                                                                                                                                                                                                                                                                            00000000                                                                                                   0218012013000000000010000060000000886 0 0000000      000000000 00000000 0000000000000M00000000000 000000 00000000  B                       
01960640384        0000LMr. Qaztwo  Q                          Flat 1                          12 Upperkirkgate                Aberdeen                                                        AB10 1BA N        0000         0000                                                                                                                                                                                                                                                                                                                                                                                                                                                                                                                                                                                                                                                                                                                                                                                                                                                                                                                            00000000                                                                                                   0218012013000000000010000030000000766 0 0000000      000000000 00000000 0000000000000M00000000000 000000 00000000  B                       
01377276382        0000LMr. qwe qwe qwe                        24-26 Upperkirkgate                                             Aberdeen                                                        AB10 1BA N        0000         0000                                                                                                                                                                                                                                                                                                                                                                                                                                                                                                                                                                                                                                                                                                                                                                                                                                                                                                                            00000000                                                                                                   0218012013000000000010000030000000000 0 0000000      000000000 00000000 3232110000000M00000000000 000000 00000000  B                       
01711226381        0000LMr. qqaa  q                            Flat 2                          14 Upperkirkgate                Aberdeen                                                        AB10 1BA N        0000         0000                                                                                                                                                                                                                                                                                                                                                                                                                                                                                                                                                                                                                                                                                                                                                                                                                                                                                                                            00000000                                                                                                   0218012013000000000010000060000000453 0 0000000      000000000 00000000 0000000000000M00000000000 000000 00000000  B                       
01711226380        0000LMr. qqaa  q                            Flat 2                          14 Upperkirkgate                Aberdeen                                                        AB10 1BA N        0000         0000                                                                                                                                                                                                                                                                                                                                                                                                                                                                                                                                                                                                                                                                                                                                                                                                                                                                                                                            00000000                                                                                                   0218012013000000000010000030000000393 0 0000000      000000000 00000000 0000000000000M00000000000 000000 00000000  B                       
01711226379        0000LMr. qqaa  q                            Flat 2                          14 Upperkirkgate                Aberdeen                                                        AB10 1BA N        0000         0000                                                                                                                                                                                                                                                                                                                                                                                                                                                                                                                                                                                                                                                                                                                                                                                                                                                                                                                            00000000                                                                                                   0218012013000000000010000060000001300 0 0000000      000000000 00000000 0000000000000M00000000000 000000 00000000  B                       
01377276378        0000LMr. qwe qwe qwe                        24-26 Upperkirkgate                                             Aberdeen                                                        AB10 1BA N        0000         0000                                                                                                                                                                                                                                                                                                                                                                                                                                                                                                                                                                                                                                                                                                                                                                                                                                                                                                                            00000000                                                                                                   0218012013000000000010000060000000000 0 0000000      000000000 00000000 3232110000000M00000000000 000000 00000000  B                       
01168863375        0000NMr. Usama  Us                          Flat 1                          44 Upperkirkgate                Aberdeen                                                        AB10 1BA N        0000         0000                                                                                                                                                                                                                                                                                                                                                                                                                                                                                                                                                                                                                                                                                                                                                                                                                                                                                                                            00000000                                                                                                   0218012013050220130010000060000000000 0 0000000      000000000 00000000 2113130000000M00000000000 000000 00000000  B                       
01168863371        0000NMr. Usama  Us                          Flat 1                          44 Upperkirkgate                Aberdeen                                                        AB10 1BA N        0000         0000                                                                                                                                                                                                                                                                                                                                                                                                                                                                                                                                                                                                                                                                                                                                                                                                                                                                                                                            00000000                                                                                                   0206122012050220130010000100000000000 0 0000000      000000000 00000000 2113130000000M00000000000 000000 00000000  B                       
01168863370        0000NMr. Usama  Us                          Flat 1                          44 Upperkirkgate                Aberdeen                                                        AB10 1BA N        0000         0000                                                                                                                                                                                                                                                                                                                                                                                                                                                                                                                                                                                                                                                                                                                                                                                                                                                                                                                            00000000                                                                                                   0205122012050220130010000100000000000 0 0000000      000000000 00000000 2113130000000M00000000000 000000 00000000  B                       
01806346367        0000NMs. test  asdasd                       Flat 1                          12 Upperkirkgate                Aberdeen                                                        AB10 1BA N        0000         0000                                                                                                                                                                                                                                                                                                                                                                                                                                                                                                                                                                                                                                                                                                                                                                                                                                                                                                                            00000000                                                                                                   0205122012000000000010000030000000353 0 0000000      000000000 00000000 1212120000000M00000000000 000000 00000000  B                       
01806346366        0000NMs. test  asdasd                       Flat 1                          12 Upperkirkgate                Aberdeen                                                        AB10 1BA N        0000         0000                                                                                                                                                                                                                                                                                                                                                                                                                                                                                                                                                                                                                                                                                                                                                                                                                                                                                                                            00000000                                                                                                   0205122012170120130010000030000000000 0 0000000      000000000 00000000 1212120000000M00000000000 000000 00000000  B                       
01806346365        0000NMs. test  asdasd                       Flat 1                          12 Upperkirkgate                Aberdeen                                                        AB10 1BA N        0000         0000                                                                                                                                                                                                                                                                                                                                                                                                                                                                                                                                                                                                                                                                                                                                                                                                                                                                                                                            00000000                                                                                                   0205122012170120130010000030000000000 0 0000000      000000000 00000000 1212120000000M00000000000 000000 00000000  B                       
01806346363        0000NMs. test  asdasd                       Flat 1                          12 Upperkirkgate                Aberdeen                                                        AB10 1BA N        0000         0000                                                                                                                                                                                                                                                                                                                                                                                                                                                                                                                                                                                                                                                                                                                                                                                                                                                                                                                            00000000                                                                                                   0205122012170120130010000030000000000 0 0000000      000000000 00000000 1212120000000M00000000000 000000 00000000  B                       
01806346360        0000NMs. test  asdasd                       Flat 1                          12 Upperkirkgate                Aberdeen                                                        AB10 1BA N        0000         0000                                                                                                                                                                                                                                                                                                                                                                                                                                                                                                                                                                                                                                                                                                                                                                                                                                                                                                                            00000000                                                                                                   0211122012170120130010000030000000000 0 0000000      000000000 00000000 1212120000000M00000000000 000000 00000000  B                       
01168863356        0000NMr. Usama  Us                          Flat 1                          44 Upperkirkgate                Aberdeen                                                        AB10 1BA N        0000         0000                                                                                                                                                                                                                                                                                                                                                                                                                                                                                                                                                                                                                                                                                                                                                                                                                                                                                                                            00000000                                                                                                   0213122012050220130010000100000000000 0 0000000      000000000 00000000 2113130000000M00000000000 000000 00000000  B                       
01168863355        0000NMr. Usama  Us                          Flat 1                          44 Upperkirkgate                Aberdeen                                                        AB10 1BA N        0000         0000                                                                                                                                                                                                                                                                                                                                                                                                                                                                                                                                                                                                                                                                                                                                                                                                                                                                                                                            00000000                                                                                                   0214122012050220130010000100000000000 0 0000000      000000000 00000000 2113130000000M00000000000 000000 00000000  B                       
01168863354        0000NMr. Usama  Us                          Flat 1                          44 Upperkirkgate                Aberdeen                                                        AB10 1BA N        0000         0000                                                                                                                                                                                                                                                                                                                                                                                                                                                                                                                                                                                                                                                                                                                                                                                                                                                                                                                            00000000                                                                                                   0215122012050220130010000100000000000 0 0000000      000000000 00000000 2113130000000M00000000000 000000 00000000  B                       
01168863353        0000NMr. Usama  Us                          Flat 1                          44 Upperkirkgate                Aberdeen                                                        AB10 1BA N        0000         0000                                                                                                                                                                                                                                                                                                                                                                                                                                                                                                                                                                                                                                                                                                                                                                                                                                                                                                                            00000000                                                                                                   0208122012050220130010000100000000000 0 0000000      000000000 00000000 2113130000000M00000000000 000000 00000000  B                       
01461811321        0000LMr. Andrey  Da                         24-26 Upperkirkgate                                             Aberdeen                                                        AB10 1BA N        0000         0000                                                                                                                                                                                                                                                                                                                                                                                                                                                                                                                                                                                                                                                                                                                                                                                                                                                                                                                            00000000                                                                                                   0222112012000000000010800030000000381 0 0000000      000000000 00000000 2037160000000M00000000000 000000 00000000  B                       
01461811320        0000LMr. Andrey  Da                         24-26 Upperkirkgate                                             Aberdeen                                                        AB10 1BA N        0000         0000                                                                                                                                                                                                                                                                                                                                                                                                                                                                                                                                                                                                                                                                                                                                                                                                                                                                                                                            00000000                                                                                                   0222112012000000000050000030000001763 0 0000000      000000000 00000000 2037160000000M00000000000 000000 00000000  B                       
01461811319        0000LMr. Andrey  Da                         24-26 Upperkirkgate                                             Aberdeen                                                        AB10 1BA N        0000         0000                                                                                                                                                                                                                                                                                                                                                                                                                                                                                                                                                                                                                                                                                                                                                                                                                                                                                                                            00000000                                                                                                   0222112012221120120010000030000000000 0 0000000      000000000 00000000 2037160000000M00000000000 000000 00000000  B                       
01461811318        0000LMr. Andrey  Da                         24-26 Upperkirkgate                                             Aberdeen                                                        AB10 1BA N        0000         0000                                                                                                                                                                                                                                                                                                                                                                                                                                                                                                                                                                                                                                                                                                                                                                                                                                                                                                                            00000000                                                                                                   0222112012221120120010000030000000000 0 0000000      000000000 00000000 2037160000000M00000000000 000000 00000000  B                       
01214561317        0000NMr. qwe qwe qwe                        Flat 2                          12 Upperkirkgate                Aberdeen                                                        AB10 1BA N        0000         0000                                                                                                                                                                                                                                                                                                                                                                                                                                                                                                                                                                                                                                                                                                                                                                                                                                                                                                                            00000000                                                                                                   0221112012000000000099990030000003060 0 0000000      000000000 00000000 2037160000000M00000000000 000000 00000000  B                       
01461811315        0000LMr. Andrey  Da                         24-26 Upperkirkgate                                             Aberdeen                                                        AB10 1BA N        0000         0000                                                                                                                                                                                                                                                                                                                                                                                                                                                                                                                                                                                                                                                                                                                                                                                                                                                                                                                            00000000                                                                                                   0220112012201120120050000030000000000 0 0000000      000000000 00000000 2037160000000M00000000000 000000 00000000  B                       
01461811314        0000LMr. Andrey  Da                         24-26 Upperkirkgate                                             Aberdeen                                                        AB10 1BA N        0000         0000                                                                                                                                                                                                                                                                                                                                                                                                                                                                                                                                                                                                                                                                                                                                                                                                                                                                                                                            00000000                                                                                                   0220112012201120120010000030000000000 0 0000000      000000000 00000000 2037160000000M00000000000 000000 00000000  B                       
01461811313        0000LMr. Andrey  Da                         24-26 Upperkirkgate                                             Aberdeen                                                        AB10 1BA N        0000         0000                                                                                                                                                                                                                                                                                                                                                                                                                                                                                                                                                                                                                                                                                                                                                                                                                                                                                                                            00000000                                                                                                   0220112012201120120054050030000000000 0 0000000      000000000 00000000 2037160000000M00000000000 000000 00000000  B                       
01461811312        0000LMr. Andrey  Da                         24-26 Upperkirkgate                                             Aberdeen                                                        AB10 1BA N        0000         0000                                                                                                                                                                                                                                                                                                                                                                                                                                                                                                                                                                                                                                                                                                                                                                                                                                                                                                                            00000000                                                                                                   0220112012201120120010000030000000000 0 0000000      000000000 00000000 2037160000000M00000000000 000000 00000000  B                       
01461811311        0000LMr. Andrey  Da                         24-26 Upperkirkgate                                             Aberdeen                                                        AB10 1BA N        0000         0000                                                                                                                                                                                                                                                                                                                                                                                                                                                                                                                                                                                                                                                                                                                                                                                                                                                                                                                            00000000                                                                                                   0220112012201120120011500030000000000 0 0000000      000000000 00000000 2037160000000M00000000000 000000 00000000  B                       
01461811301        0000LMr. Andrey  Da                         24-26 Upperkirkgate                                             Aberdeen                                                        AB10 1BA N        0000         0000                                                                                                                                                                                                                                                                                                                                                                                                                                                                                                                                                                                                                                                                                                                                                                                                                                                                                                                            00000000                                                                                                   0220112012201120120014450030000000000 0 0000000      000000000 00000000 2037160000000M00000000000 000000 00000000  B                       
01461811297        0000LMr. Andrey  Da                         24-26 Upperkirkgate                                             Aberdeen                                                        AB10 1BA N        0000         0000                                                                                                                                                                                                                                                                                                                                                                                                                                                                                                                                                                                                                                                                                                                                                                                                                                                                                                                            00000000                                                                                                   0220112012201120120010000030000000000 0 0000000      000000000 00000000 2037160000000M00000000000 000000 00000000  B                       
01461811295        0000LMr. Andrey  Da                         24-26 Upperkirkgate                                             Aberdeen                                                        AB10 1BA N        0000         0000                                                                                                                                                                                                                                                                                                                                                                                                                                                                                                                                                                                                                                                                                                                                                                                                                                                                                                                            00000000                                                                                                   0216112012201120120022900030000000000 0 0000000      000000000 00000000 2037160000000M00000000000 000000 00000000  B                       
01461811294        0000LMr. Andrey  Da                         24-26 Upperkirkgate                                             Aberdeen                                                        AB10 1BA N        0000         0000                                                                                                                                                                                                                                                                                                                                                                                                                                                                                                                                                                                                                                                                                                                                                                                                                                                                                                                            00000000                                                                                                   0216112012201120120015100030000000000 0 0000000      000000000 00000000 2037160000000M00000000000 000000 00000000  B                       
01461811293        0000LMr. Andrey  Da                         24-26 Upperkirkgate                                             Aberdeen                                                        AB10 1BA N        0000         0000                                                                                                                                                                                                                                                                                                                                                                                                                                                                                                                                                                                                                                                                                                                                                                                                                                                                                                                            00000000                                                                                                   0216112012201120120012200030000000000 0 0000000      000000000 00000000 2037160000000M00000000000 000000 00000000  B                       
01461811290        0000LMr. Andrey  Da                         24-26 Upperkirkgate                                             Aberdeen                                                        AB10 1BA N        0000         0000                                                                                                                                                                                                                                                                                                                                                                                                                                                                                                                                                                                                                                                                                                                                                                                                                                                                                                                            00000000                                                                                                   0215112012201120120020600030000000000 0 0000000      000000000 00000000 2037160000000M00000000000 000000 00000000  B                       
01461811289        0000LMr. Andrey  Da                         24-26 Upperkirkgate                                             Aberdeen                                                        AB10 1BA N        0000         0000                                                                                                                                                                                                                                                                                                                                                                                                                                                                                                                                                                                                                                                                                                                                                                                                                                                                                                                            00000000                                                                                                   0215112012201120120010000030000000000 0 0000000      000000000 00000000 2037160000000M00000000000 000000 00000000  B                       
01168863232        0000NMr. Usama  Us                          Flat 1                          44 Upperkirkgate                Aberdeen                                                        AB10 1BA N        0000         0000                                                                                                                                                                                                                                                                                                                                                                                                                                                                                                                                                                                                                                                                                                                                                                                                                                                                                                                            00000000                                                                                                   0205102012050220135636850100000000000 0 0000000      000000000 00000000 2113130000000M00000000000 000000 00000000  B                       
01168863229        0000NMr. Usama  Us                          Flat 1                          44 Upperkirkgate                Aberdeen                                                        AB10 1BA N        0000         0000                                                                                                                                                                                                                                                                                                                                                                                                                                                                                                                                                                                                                                                                                                                                                                                                                                                                                                                            00000000                                                                                                   0210092012100920120010000100000000000 0 0000000      000000000 00000000 2113130000000M00000000000 000000 00000000  B                       
01168863225        0000NMr. Usama  Us                          Flat 1                          44 Upperkirkgate                Aberdeen                                                        AB10 1BA N        0000         0000                                                                                                                                                                                                                                                                                                                                                                                                                                                                                                                                                                                                                                                                                                                                                                                                                                                                                                                            00000000                                                                                                   0206092012060920120010000100000000000 0 0000000      000000000 00000000 2113130000000M00000000000 000000 00000000  B                       
01168863223        0000NMr. Usama  Us                          Flat 1                          44 Upperkirkgate                Aberdeen                                                        AB10 1BA N        0000         0000                                                                                                                                                                                                                                                                                                                                                                                                                                                                                                                                                                                                                                                                                                                                                                                                                                                                                                                            00000000                                                                                                   0206092012060920124755990100000000000 0 0000000      000000000 00000000 2113130000000M00000000000 000000 00000000  B                       
01168863182        0000NMr. Usama  Us                          Flat 1                          44 Upperkirkgate                Aberdeen                                                        AB10 1BA N        0000         0000                                                                                                                                                                                                                                                                                                                                                                                                                                                                                                                                                                                                                                                                                                                                                                                                                                                                                                                            00000000                                                                                                   0227082012040920120001000100000000000 0 0000000      000000000 00000000 2113130000000M00000000000 000000 00000000  B                       
01168863179        0000NMr. Usama  Us                          Flat 1                          44 Upperkirkgate                Aberdeen                                                        AB10 1BA N        0000         0000                                                                                                                                                                                                                                                                                                                                                                                                                                                                                                                                                                                                                                                                                                                                                                                                                                                                                                                            00000000                                                                                                   0226082012130920120001000100000000000 0 0000000      000000000 00000000 2113130000000M00000000000 000000 00000000  B                       
01168863177        0000NMr. Usama  Us                          Flat 1                          44 Upperkirkgate                Aberdeen                                                        AB10 1BA N        0000         0000                                                                                                                                                                                                                                                                                                                                                                                                                                                                                                                                                                                                                                                                                                                                                                                                                                                                                                                            00000000                                                                                                   0225082012250820123690490100000000000 0 0000000      000000000 00000000 2113130000000M00000000000 000000 00000000  B                       
01168863176        0000NMr. Usama  Us                          Flat 1                          44 Upperkirkgate                Aberdeen                                                        AB10 1BA N        0000         0000                                                                                                                                                                                                                                                                                                                                                                                                                                                                                                                                                                                                                                                                                                                                                                                                                                                                                                                            00000000                                                                                                   0225082012250820122385140100000000000 0 0000000      000000000 00000000 2113130000000M00000000000 000000 00000000  B                       
01168863175        0000NMr. Usama  Us                          Flat 1                          44 Upperkirkgate                Aberdeen                                                        AB10 1BA N        0000         0000                                                                                                                                                                                                                                                                                                                                                                                                                                                                                                                                                                                                                                                                                                                                                                                                                                                                                                                            00000000                                                                                                   0225082012260820120001200100000000000 0 0000000      000000000 00000000 2113130000000M00000000000 000000 00000000  B                       
01168863174        0000NMr. Usama  Us                          Flat 1                          44 Upperkirkgate                Aberdeen                                                        AB10 1BA N        0000         0000                                                                                                                                                                                                                                                                                                                                                                                                                                                                                                                                                                                                                                                                                                                                                                                                                                                                                                                            00000000                                                                                                   0225082012130920122951920100000000000 0 0000000      000000000 00000000 2113130000000M00000000000 000000 00000000  B                       
01168863173        0000NMr. Usama  Us                          Flat 1                          44 Upperkirkgate                Aberdeen                                                        AB10 1BA N        0000         0000                                                                                                                                                                                                                                                                                                                                                                                                                                                                                                                                                                                                                                                                                                                                                                                                                                                                                                                            00000000                                                                                                   0225082012050220132721650100000000000 0 0000000      000000000 00000000 2113130000000M00000000000 000000 00000000  B                       
01168863170        0000NMr. Usama  Us                          Flat 1                          44 Upperkirkgate                Aberdeen                                                        AB10 1BA N        0000         0000                                                                                                                                                                                                                                                                                                                                                                                                                                                                                                                                                                                                                                                                                                                                                                                                                                                                                                                            00000000                                                                                                   0224082012240820121692470100000000000 0 0000000      000000000 00000000 2113130000000M00000000000 000000 00000000  B                       
01168863169        0000NMr. Usama  Us                          Flat 1                          44 Upperkirkgate                Aberdeen                                                        AB10 1BA N        0000         0000                                                                                                                                                                                                                                                                                                                                                                                                                                                                                                                                                                                                                                                                                                                                                                                                                                                                                                                            00000000                                                                                                   0224082012240820128500680100000000000 0 0000000      000000000 00000000 2113130000000M00000000000 000000 00000000  B                       
01168863167        0000NMr. Usama  Us                          Flat 1                          44 Upperkirkgate                Aberdeen                                                        AB10 1BA N        0000         0000                                                                                                                                                                                                                                                                                                                                                                                                                                                                                                                                                                                                                                                                                                                                                                                                                                                                                                                            00000000                                                                                                   0224082012050220130300000100000000000 0 0000000      000000000 00000000 2113130000000M00000000000 000000 00000000  B                       
01168863166        0000NMr. Usama  Us                          Flat 1                          44 Upperkirkgate                Aberdeen                                                        AB10 1BA N        0000         0000                                                                                                                                                                                                                                                                                                                                                                                                                                                                                                                                                                                                                                                                                                                                                                                                                                                                                                                            00000000                                                                                                   0224082012050220132844800100000000000 0 0000000      000000000 00000000 2113130000000M00000000000 000000 00000000  B                       
01168863165        0000NMr. Usama  Us                          Flat 1                          44 Upperkirkgate                Aberdeen                                                        AB10 1BA N        0000         0000                                                                                                                                                                                                                                                                                                                                                                                                                                                                                                                                                                                                                                                                                                                                                                                                                                                                                                                            00000000                                                                                                   0224082012240820121000000100000000000 0 0000000      000000000 00000000 2113130000000M00000000000 000000 00000000  B                       
01168863164        0000NMr. Usama  Us                          Flat 1                          44 Upperkirkgate                Aberdeen                                                        AB10 1BA N        0000         0000                                                                                                                                                                                                                                                                                                                                                                                                                                                                                                                                                                                                                                                                                                                                                                                                                                                                                                                            00000000                                                                                                   0223082012050220131325130100000000000 0 0000000      000000000 00000000 2113130000000M00000000000 000000 00000000  B                       
9999999999999999999900000068                                                                                                                                                                                                                                                                                                                                                                                                                                                                                                                                                                                                                                                                                                                                                                                                                                                                                                                                                                                                                                                                                                                                                                                                                                                                                                                                                                                        
